:10000000FDC700000C941B080C941B080C941B08E3
:100010000C941B080C941B080C941B080C941B08D4
:100020000C941B080C941B080C948A1A0C94E61A66
:100030000C941B080C941B08FEC70000FCC70000B2
:10004000FAC70000F8C70000F6C70000F4C70000B8
:10005000F2C700000C940D09EEC70000ECC70000C9
:10006000EAC70000E8C70000E6C70000E4C70000D8
:10007000E2C70000E0C70000DEC70000DCC70000E8
:10008000DAC70000D8C70000D6C70000D4C70000F8
:10009000D2C70000D0C70000CEC70000CCC7000008
:1000A000CAC70000C8C70000C6C700008219881967
:1000B000911997199D19A319A919AF19E119E319F4
:1000C000E619EA19EE19F119F519F9193A30303033
:1000D000303030303146460A000A003A0057686135
:1000E0007420746865206675636B20646964207988
:1000F0006F75206A757374206675636B696E67200F
:100100007361792061626F7574206D652C20796F41
:1001100075206C6974746C652062697463683F2033
:1001200049E280996C6C206861766520796F752052
:100130006B6E6F77204920677261647561746564C6
:1001400020746F70206F66206D7920636C6173730B
:1001500020696E20746865204E6176792053656150
:100160006C732C20616E642049E280997665206270
:1001700065656E20696E766F6C76656420696E20A9
:100180006E756D65726F757320736563726574202B
:100190007261696473206F6E20416C2D51756165C9
:1001A00064612C20616E6420492068617665206F4F
:1001B0007665722033303020636F6E6669726D65CC
:1001C00064206B696C6C732E204920616D20747201
:1001D00061696E656420696E20676F72696C6C611D
:1001E000207761726661726520616E642049E280E9
:1001F000996D2074686520746F7020736E697065E6
:100200007220696E2074686520656E74697265205D
:1002100055532061726D656420666F726365732E3D
:1002200020596F7520617265206E6F7468696E6702
:1002300020746F206D6520627574206A7573742058
:10024000616E6F74686572207461726765742E20C8
:10025000492077696C6C207769706520796F75200B
:10026000746865206675636B206F75742077697498
:100270006820707265636973696F6E2074686520A9
:100280006C696B6573206F662077686963682068A6
:100290006173206E65766572206265656E20736598
:1002A000656E206265666F7265206F6E2074686986
:1002B000732045617274682C206D61726B206D79BA
:1002C000206675636B696E6720776F7264732E208A
:1002D000596F75207468696E6B20796F7520636142
:1002E0006E20676574206177617920776974682072
:1002F000736179696E6720746861742073686974CA
:1003000020746F206D65206F76657220746865209B
:10031000496E7465726E65743F205468696E6B2017
:10032000616761696E2C206675636B65722E204172
:100330007320776520737065616B204920616D20A3
:10034000636F6E74616374696E67206D7920736585
:1003500063726574206E6574776F726B206F6620B0
:100360007370696573206163726F7373207468655D
:100370002055534120616E6420796F757220495079
:10038000206973206265696E6720747261636564B9
:10039000207269676874206E6F7720736F20796FA1
:1003A0007520626574746572207072657061726523
:1003B00020666F72207468652073746F726D2C20D4
:1003C0006D6167676F742E205468652073746F7257
:1003D0006D2074686174207769706573206F75741F
:1003E00020746865207061746865746963206C6945
:1003F00074746C65207468696E6720796F7520630A
:10040000616C6C20796F7572206C6966652E20595D
:100410006F75E280997265206675636B696E6720FF
:10042000646561642C206B69642E20492063616ED1
:1004300020626520616E7977686572652C20616E37
:100440007974696D652C20616E6420492063616E4A
:10045000206B696C6C20796F7520696E206F7665F2
:100460007220736576656E2068756E6472656420AF
:10047000776179732C20616E642074686174E28006
:100480009973206A7573742077697468206D792078
:10049000626172652068616E64732E204E6F7420F5
:1004A0006F6E6C7920616D204920657874656E737C
:1004B0006976656C7920747261696E656420696E15
:1004C00020756E61726D656420636F6D6261742C5E
:1004D00020627574204920686176652061636365D8
:1004E000737320746F2074686520656E746972651B
:1004F00020617273656E616C206F66207468652080
:10050000556E6974656420537461746573204D6120
:1005100072696E6520436F72707320616E6420494A
:100520002077696C6C2075736520697420746F2066
:100530006974732066756C6C20657874656E7420C0
:10054000746F207769706520796F7572206D69739B
:10055000657261626C6520617373206F66662074DA
:1005600068652066616365206F6620746865206336
:100570006F6E74696E656E742C20796F75206C696E
:1005800074746C6520736869742E204966206F6EE0
:100590006C7920796F7520636F756C642068617663
:1005A00065206B6E6F776E207768617420756E685A
:1005B0006F6C79207265747269627574696F6E20F0
:1005C000796F7572206C6974746C6520E2809C632D
:1005D0006C65766572E2809D20636F6D6D656E74EB
:1005E000207761732061626F757420746F2062726E
:1005F000696E6720646F776E2075706F6E20796FFB
:10060000752C206D6179626520796F7520776F7523
:100610006C6420686176652068656C6420796F750C
:1006200072206675636B696E6720746F6E6775659F
:100630002E2042757420796F7520636F756C646E1F
:10064000E28099742C20796F75206469646EE28071
:1006500099742C20616E64206E6F7720796F75E23B
:100660008099726520706179696E67207468652071
:1006700070726963652C20796F7520676F6464619F
:100680006D6E206964696F742E20492077696C6CE7
:100690002073686974206675727920616C6C206FB4
:1006A00076657220796F7520616E6420796F752090
:1006B00077696C6C2064726F776E20696E20697444
:1006C0002E20596F75E280997265206675636B699B
:1006D0006E6720646561642C206B6964646F2E0012
:1006E00044696420796F752065766572206865615C
:1006F00072207468652074726167656479206F6622
:1007000020446172746820506C616775656973205C
:1007100054686520576973653F20492074686F7578
:10072000676874206E6F742E204974E2809973207C
:100730006E6F7420612073746F7279207468652005
:100740004A65646920776F756C642074656C6C20F1
:10075000796F752E204974E2809973206120536966
:100760007468206C6567656E642E204461727468DD
:1007700020506C6167756569732077617320612013
:100780004461726B204C6F7264206F6620746865E0
:1007900020536974682C20736F20706F77657266C0
:1007A000756C20616E6420736F20776973652068B3
:1007B0006520636F756C64207573652074686520AF
:1007C000466F72636520746F20696E666C75656E26
:1007D000636520746865206D69646963686C6F7215
:1007E00069616E7320746F20637265617465206C3B
:1007F000696665E280A6204865206861642073759B
:1008000063682061206B6E6F776C65646765206F2D
:100810006620746865206461726B2073696465206A
:100820007468617420686520636F756C64206576F8
:10083000656E206B65657020746865206F6E6573EA
:100840002068652063617265642061626F75742041
:1008500066726F6D206479696E672E20546865201A
:100860006461726B2073696465206F6620746865CB
:1008700020466F726365206973206120706174681F
:1008800077617920746F206D616E79206162696C87
:10089000697469657320736F6D6520636F6E73692A
:1008A00064657220746F20626520756E6E61747568
:1008B00072616C2E20486520626563616D652073EE
:1008C0006F20706F77657266756CE280A620746821
:1008D00065206F6E6C79207468696E67206865208A
:1008E00077617320616672616964206F6620776149
:1008F00073206C6F73696E672068697320706F77FF
:1009000065722C207768696368206576656E7475FA
:10091000616C6C792C206F6620636F757273652C27
:10092000206865206469642E20556E666F72747548
:100930006E6174656C792C206865207461756768D8
:1009400074206869732061707072656E7469636584
:100950002065766572797468696E67206865206BBA
:100960006E65772C207468656E20686973206170ED
:100970007072656E74696365206B696C6C65642068
:1009800068696D20696E2068697320736C65657095
:100990002E2049726F6E69632E20486520636F7543
:1009A0006C642073617665206F746865727320666D
:1009B000726F6D2064656174682C20627574206E9E
:1009C0006F742068696D73656C662E00B313B31382
:1009D000B516D217FA161718F7161418181735186F
:1009E000B313B3135418B3130C172918151732186F
:1009F00012172F18AF16CC17AC16C9170F172C18D3
:100A0000B313B3130317201800171D18091726185E
:100A1000D016ED17D616F317B313B313B313B313DE
:100A2000B313B313B313B313F1160E18EE160B185A
:100A3000EB160818F41611180617231892189518B3
:100A40004916661743166017041621173D165A17E4
:100A500001161E174C1851184C1851181C1639172E
:100A600022163F17B816D517C416E117CD16EA1788
:100A700098189B18B216CF17FE151B1731164E1774
:100A8000341651173716541707162417B313B31318
:100A9000B313B31313163017251642170A16271768
:100AA0001616331728164517C716E417C116DE1792
:100AB0002E164B1740165D170D162A172B164817C2
:100AC00010162D17B313B313B313B3131916361728
:100AD0001F163C173A16571746166317CA16E7171C
:100AE000BE16DB17FD161A184F166C1752166F1725
:100AF00055167217581675175B167817B313B3137C
:100B0000B313B3135E167B1761167E176416811735
:100B1000671684174C166917BB16D817B313B3138F
:100B2000B213B213B213B213B213B213B213B2139D
:100B3000B213B2135C18B313B213B213B213B213DD
:100B4000B213B213B213B213B213B213B213B2137D
:100B5000B313B313B213B213B213B213B213B2136B
:100B6000B213B213B213B213B213B213B213B2135D
:100B7000B213B213B213B213B213B213B213B2134D
:100B8000B213B213B213B213B213B213B213B2133D
:100B90004916661743166017041621173D165A1793
:100BA00001161E17B213B213B213B2132516421751
:100BB00022163F17B213B213B213B213B213B21309
:100BC000B213B213B213B213FE151B17341651171A
:100BD000071624170D162A1710162D17B313B31363
:100BE000B313B31313163017191636171C1639170B
:100BF0001F163C17CA16E717B213B213B213B2137B
:100C00002E164B1740165D170A16271731164E176A
:100C100037165417B213B213B213B2134616631732
:100C20003A16571716163317281645172B16481756
:100C3000B213B213B213B213B213B213B213B2138C
:100C4000B213B213B213B213B213B213B213B2137C
:100C5000B213B213B213B213B213B213B213B2136C
:100C6000B213B213B213B213B213B213B313B3135A
:100C7000B313B313B313B313B313B313BB139F1350
:100C80003818B413B8139E13B313B313B313B313B9
:100C9000B313B313B313B313B313B313B313B31324
:100CA000B313B3130317201800171D18B313B3138E
:100CB000B313B313B313B313B313B313B313B31304
:100CC000B313B313B313B3136A1687176A168717D0
:100CD000C416E117DC16F917B313B3133E14A413AB
:100CE0001E14A3137E14A613BE14A8131E15AB1353
:100CF0005E15AD13B313B313B313B313B313B3131D
:100D00006D168A1770168D1773169017DF16FC175D
:100D1000B313B313BE13A013FE13A2135E14A513D3
:100D20009E14A713FE14AA133E15AC13B313B313EA
:100D3000B313B313B313B313761693177916961729
:100D40007C169917E216FF17BE16DB17DE14A913DF
:100D50007E15AE13DE13A1139E15AF13BE15B0138F
:100D6000DE15B113B313B313B313B313B313B31328
:100D70007F169C1782169F178516A217E516021874
:100D8000E8160518B313B3138816A5178B16A81702
:100D90008E16AB179116AE179416B117A616C31779
:100DA000A916C6179716B4179A16B7179D16BA172D
:100DB000A016BD17A316C017B313B313B313B31301
:100DC000B313B313B313B313B313B313B313B313F3
:100DD000B313B313B313B313B313B313B313B313E3
:100DE000B313B313B313B313B313B313B313B313D3
:100DF000B313B313B313B313B313B313B313B313C3
:100E0000B313B313B313B313B313B313B313B313B2
:100E1000B313B313B313B313B313B313B313B313A2
:100E2000B313B313B313B313B313B313B313B31392
:100E3000B313B313B313B313B313B313B313B31382
:100E4000B313B313B313B313B313B313B313B31372
:100E5000B313B313B313B313B313B313B313B31362
:100E6000B313B313B313B313B313B313B313B31352
:100E7000B313B313B313B313B313B313B313B31342
:100E8000B313B313B313B313B313B313B313B31332
:100E9000B313B313B313B3134618B713B313B31386
:100EA000B313B313B313B313B313B313B313B31312
:100EB000B313B313B313B313B313B313B313B31302
:100EC000B313B313B313B313B313B313B313B313F2
:100ED0004018B6133818B413B313B313B313B313C2
:100EE000B313B313B313B313B313B313B313B313D2
:100EF000B313B313B313B313B313B313B313B313C2
:100F0000B313B313B313B3133A18B51300010000AE
:100F1000E40F1200020000830F2200220000A50F40
:100F20003F00210000950F09000300007F0F04011E
:100F3000030904750F08020309043D0F3636034503
:100F400000720067006F0044006F007800200045C9
:100F500000720067006F006E006F006D0069006333
:100F60000020004B006500790062006F0061007294
:100F70000064000000080344004900590000000418
:100F800003090409022200010100C0320904000023
:100F90000103010100092111010001223F000705A1
:100FA000830308000105010906A1017501950805E3
:100FB0000719E029E71500250181029501750881CF
:100FC000039505750105081901290591029501751B
:100FD0000391039506750815002568050719002972
:100FE000688100C01201000200000020501D28602E
:100FF000000101020001000001C1060011241FBE12
:10100000CFEFDAE0DEBFCDBF11E0A0E0B1E0EAE073
:10101000F0E402C005900D92AE3FB107D9F713E09E
:10102000AEEFB1E001C01D92A233B107E1F70E941B
:10103000421C0C9403200C9400001F93CF93DF9369
:10104000EC0119818881811B8530B8F0812F90E0F7
:1010500002968F3F910509F010F41E5F01C01FEF4B
:1010600084E0189FB00111248A819B810E94D91DC0
:10107000009729F018839B838A8380E001C081E078
:10108000DF91CF911F910895CF93DF93A62FFC019D
:1010900061814A2F50E0262F30E02150310942175C
:1010A00053079CF4EC01EA81FB81440F551F440F68
:1010B000551FE40FF51F4481558166817781408378
:1010C000518362837383AF5FE2CF61506183DF91AD
:1010D000CF91B3CFEF92FF920F931F93CF93DF93F4
:1010E000EC017B018A014115510509F189818F3F8E
:1010F00001F18F5F8983CE01A0DF9981882319F0E8
:101100009150998316C0EA81FB81DF0184E0989FAA
:10111000A00DB11D11241497ED92FC92898194E0E9
:10112000899FE00DF11D112434971383028380E021
:1011300001C081E0DF91CF911F910F91FF90EF905F
:101140000895AB01BC0186E092E0C4CFCF938091BB
:101150000402909105020196909305028093040287
:10116000C0E080910702C817D8F4E0910802F0911E
:10117000090284E0C89FE00DF11D11248081918156
:10118000009749F40280F381E02D09956C2F86E0E9
:1011900092E07ADF03C0019791838083CF5FE1CF34
:1011A000CF910895CF938091FE019091FF01019618
:1011B0009093FF018093FE01C0E080910102C81767
:1011C000D8F4E0910202F091030284E0C89FE00DA0
:1011D000F11D112480819181009749F40280F381EF
:1011E000E02D09956C2F80E092E04EDF03C001975F
:1011F00091838083CF5FE1CFCF9108958AEF87BD40
:1012000082E084BD93E095BD80936E0080E00895F8
:1012100080910A0290910B0208951F920F920FB6CF
:101220000F9211248F939F9380910A0290910B0249
:10123000019690930B0280930A029F918F910F90D9
:101240000FBE0F901F901895DF92EF92FF920F93B1
:101250001F93CF93DF9380910D02D82ED29430EF5D
:10126000D322D594D594D594D594982F95959595CA
:10127000959595950D2D090F97FD03C005300CF43C
:101280006FC08F7010910C02602F772767FD7095EB
:1012900081110FC0812F90E0861B970B9C012E5F60
:1012A0003F4F2F3F310509F098F5C2E0C10FC01B39
:1012B00036C040E050E0812F90E0861B970BED2C6C
:1012C000FF24E7FCF0942D2D240F30E04F5F5F4F9B
:1012D00028173907ACF4C0910E02D0910F02F90122
:1012E000EE19FF09EE0FFF1FEC0FFD1FD901AA0F2A
:1012F000BB1FAC0FBD1F2D913C9131832083E3CFE9
:10130000802F8295807F80930D02053018F628C0CB
:101310008F3F910519F010F081E023C0CFEF6C2FC3
:1013200070E0660F771F80910E0290910F020E946D
:10133000D91D009789F330910D02232F259525950E
:1013400025952595211B2C0F2295207F3F70322B50
:1013500030930D02C0930C0290930F0280930E0203
:1013600080E0DF91CF911F910F91FF90EF90DF9080
:101370000895EF92FF920F931F93CF93DF93809185
:101380001102F82EF29490EFF922F594F594F59469
:10139000F594982F95959595959595950F2D090F01
:1013A00097FD03C005300CF475C08F7010911002CA
:1013B000602F772767FD709581110FC0812F90E016
:1013C000861B970B9C012E5F3F4F2F3F310509F085
:1013D000C8F5C2E0C10FC01B3CC040E050E0212F67
:1013E00030E0261B370BCF2DDD27C7FDD095EF2C26
:1013F000E40E8E2D90E04F5F5F4F82179307CCF481
:10140000A0911202B09113028C1B9D0BFC01EE0FF8
:10141000FF1FE80FF91FEA0FFB1F83E0E89EA00DF6
:10142000B11D11248D919D91AC9180839183A283F4
:10143000DECF802F8295807F80931102053008F0E7
:10144000BDCF28C08F3F910519F010F081E023C077
:10145000CFEF83E0C89FB0011124809112029091D8
:1014600013020E94D91D009789F330911102232F96
:101470002595259525952595211B2C0F2295207FB7
:101480003F70322B30931102C093100290931302DD
:101490008093120280E0DF91CF911F910F91FF9016
:1014A000EF900895E1E1F2E0808191E0980F9F7064
:1014B000807F892B80835DCFF999FECF92BD81BD5E
:1014C000F89A80B508950F931F93CF93DF931F92DF
:1014D000CDB7DEB78C016983EFDF6981681791F0C2
:1014E0006F3F19F4FD98FC9A06C08F3F11F4FD9AE6
:1014F00001C0FD98FC9812BD01BD60BDF894FA9A38
:10150000F99A78940F90DF91CF911F910F910895E0
:101510000F931F93CF93DF9320911102422F429597
:10152000407F45954595459545958091100290E001
:10153000841B910947FD939525952595259525951E
:10154000332727FD30958217930751F480912703A5
:101550008E7F80932703DF91CF911F910F91089584
:10156000E0911202F091130223E04202E00DF11D1E
:1015700011248081982F9F7381F48295869586959A
:1015800083709181292F220F220F6281822B9295E5
:1015900096959695937097DFE6C0913009F08DC0CF
:1015A000828181110BC07EDF80910D0291E0980F46
:1015B0009F70807F892B80930D0246DE80910D0203
:1015C0008295807F8595859585958595880F990B62
:1015D00000910E0210910F02080F191FF80180816F
:1015E00091816ADF909111029295907F95959595E2
:1015F00095959595C0911202D0911302F3E09F0248
:10160000C00DD11D11242881229526952695237081
:101610009981392F330F330F682F832F822B9295A7
:101620009695969593704FDF4881342F3295369575
:10163000369533702981522F550F550F852F832BE7
:10164000922F9295969596959370F801208131810D
:101650004F7382179307A8F401969370282F229551
:10166000220F220F207C242B28839295990F990F0B
:10167000907C86958695892B8983808191810196BE
:1016800016C081509C4F9370282F2295220F220F55
:10169000207C242B28839295990F990F907C869516
:1016A0008695892B8983F8018081918101979183A7
:1016B00080838A8181508A8357C0923009F053C059
:1016C000C0910D02C295C07FC595C595C595C595BC
:1016D0008C2F880F990BE0910E02F0910F02E80F0A
:1016E000F91F808181110AC0DDDECF5FCF7080914C
:1016F0000D02807F8C2B80930D02A6DD809111025C
:101700008295807F8595859585958595E0911202D6
:10171000F091130223E08202E00DF11D112480817B
:1017200082958695869583709181292F220F220FAD
:101730006281822B9295969596959370C4DE8091E6
:101740000D028295807F8595859585958595880F75
:10175000990BE0910E02F0910F02E80FF91F8081C2
:101760008150808301C09EDE68E87AE081E090E0ED
:10177000DF91CF911F910F91E4CC1F93CF93DF9313
:1017800000D0CDB7DEB7182F20911102322F307F55
:1017900030512F70232B2093110269839A83E9DD46
:1017A0003091110269819A81882349F0832F807FCB
:1017B000805F3F70382B3093110281E030C0209160
:1017C000100221503595359535953595231BE091BF
:1017D0001202F091130283E0289FE00DF11D112405
:1017E000812F8295880F880F807C80839295990F36
:1017F000990F907C812F86958695892B81836283B2
:101800008091270380FD0AC068E87AE080E090E0DC
:1018100098DC8091270381608093270380E00F90FC
:101820000F90DF91CF911F910895E9EBF0E0808157
:101830008C7F80838CE08093B800089584EA809345
:10184000BC008091BC0087FFFCCF8091B900887FED
:10185000883049F08091B900887F803121F08091F3
:10186000B900887F089580E0089584E98093BC00E2
:101870008091BC0084FDFCCF08958093BB0084E878
:101880008093BC008091BC0087FFFCCF8091B900A1
:10189000887F883171F08091B900887F883249F063
:1018A0008091B900887F803421F08091B900887FD1
:1018B000089580E0089524EC2093BC002091BC00A2
:1018C00027FFFCCF2091BB00FC0120838091B90051
:1018D000887F803521F08091B900887F089580E06D
:1018E000089560E080E090E048DF81112AC060E068
:1018F00081E090E042DF811124C063E082E090E06B
:101900003CDF81111EC06FEF83E090E036DF811174
:1019100018C061E084E090E030DF811112C06FEF09
:1019200085E090E02ADF81110CC085E090E0909383
:1019300029038093280310922B0310922A0380E03E
:10194000089581E00895CF93DF9380E090E0B4DDC7
:10195000811114C081E090E0AFDD81110FC082E001
:1019600090E0AADD833051F483E090E0A5DD8F3F65
:1019700029F484E090E0A0DD813019F0DF91CF916F
:10198000B0CF85E090E098DDC5E0D0E08F3F41F03A
:10199000CE01019691DDC80FD11DCE018DDDF6CFB0
:1019A000D0932903C093280310922B0310922A038B
:1019B00080E0DF91CF910895682F81E00C94711938
:1019C000682F80E00C947119CF93DF9381EE0E9411
:1019D000D219D82F85EE0E94D219C82F61EE80E06F
:1019E0000E94711965EE80E00E9471190E94321AFE
:1019F00069E381E00E9471190E94321A69E380E074
:101A00000E9471190E94321A61EE8D2F0E94711985
:101A100065EE8C2F0E947119DF91CF910C94321AD0
:101A2000CF92DF92EF92FF920F931F93CF93DF93AA
:101A300000D0CDB7DEB7982F92959F7099838F70A5
:101A40008A838E010F5F1F4F7E0183E0E80EF11C39
:101A500087E2C82EF8018081811102C0C08207C0D0
:101A60008A3010F4835E01C08650F8018083F8014B
:101A7000D1908F016D2D81E00E9471190E94321A60
:101A80006D2D80E00E9471190E94321A0E151F05FB
:101A900009F70F900F90DF91CF911F910F91FF9059
:101AA000EF90DF90CF900C94321AEF92FF920F9349
:101AB0001F93CF93DF93EC01FE016491662309F439
:101AC000A0C067FD03C0062F10E036C0862F8295A8
:101AD00086958770863061F46F71F0E46F9F8001A6
:101AE00011242196FE016491862F8F73082B24C048
:101AF000862F82958F708E30B9F4062F10E0102F4C
:101B000000271295107FFE01319684912296FE01E6
:101B10006491962F9F73092B8F7390E4899FF00136
:101B200011240E2B1F2B08C06695669566956E31A5
:101B300009F061C023965FC0862F90E0801791075F
:101B4000F1F5603309F459C08FEC860F893018F431
:101B50004DEEF42E10C08FEB860F8A3130F433EC4B
:101B6000F32EF60EEE24E39418C08FE9860F8A3127
:101B700020F423EAF22EF60E42C068506837F8F4DB
:101B800070E0FB01EB57FE4FE080FB01E35FFE4F8F
:101B9000F080FF20A1F0EE2021F061EE81E00E94B4
:101BA00071196F2D81E00E9471190E94321AEE2086
:101BB00021F061EE80E00E9471196F2D17C062EE76
:101BC00081E00E9471190E94321A6EE281E00E9447
:101BD00071190E94321A6EE280E00E9471190E940F
:101BE000321A812F1DDF802F1BDF62EE80E00E9402
:101BF00071190E94321A21965FCF97E2F92EE12CDB
:101C0000D0CFDF91CF911F910F91FF90EF9008956A
:101C1000FC0180810895FC01849108958F929F9228
:101C2000AF92BF92CF92DF92EF92FF920F931F93EA
:101C3000CF93DF936C01EB017A0180E1982E8A014A
:101C40000F5F1F4FC017D10769F097012C1B3D0B89
:101C5000C9010196492D50E08417950718F499247D
:101C60009394920E8D2E8C0E890C8BED90E01DDFDF
:101C7000892DD6DE8D2FD4DE8C2FD2DE80E0D0DE13
:101C80009E01822F8C1B891558F459019FEFA91AC8
:101C9000B90AC901F6010995880EC2DE9501F1CF96
:101CA000C90DD11D882D8195BBDE89ED90E0FDDE4B
:101CB000C017D10709F0C6CF8CEC90E0DF91CF912F
:101CC0001F910F91FF90EF90DF90CF90BF90AF905A
:101CD0009F908F90EACEF89481E08093E00080E2BC
:101CE0008093D8001092C9008FE19EE40197F1F72C
:101CF00000C000001DBA109268001CBC10BE1FBAC4
:101D000010927A0010926E0010926F001092710083
:101D1000109272001092C900ECEBF0E0108214B83F
:101D200017B81AB81DB810BA108215B818B81BB871
:101D30001EB811BA0C94003F0895AB0161152BE059
:101D4000720710F04FEF5AE04817590720F0BC0116
:101D500088E09EE063CF0895AB01611520E872072B
:101D600010F04FEF5FE74817590720F0BC018BE0F8
:101D70009EE054CF0895AB01611524E0720710F086
:101D80004FEF53E04817590720F0BC018CE59AE06B
:101D900045CF0895CF93C0911502809114028C1BFA
:101DA0008530E0F08C2F90E002968F3F910509F08E
:101DB00010F4CE5F01C0CFEF6C2F70E0660F771F7D
:101DC00080911602909117020E94D91D009741F050
:101DD000C0931402909317028093160280E001C012
:101DE00081E0CF9108952091150230E090E08217B4
:101DF000930774F421503109281B390B220F331F2C
:101E0000E0911602F0911702E20FF31F818108950D
:101E100080E008954091150220911602309117023A
:101E200090E0941769F02E5F3F4FF901329750818F
:101E3000581304C08FEF840F891B08959F5FF1CF63
:101E40008FEF0895EF92FF920F931F93CF93DF933D
:101E5000082FF62E142F862FDDDF209115028F3FDD
:101E600079F030E021503109281B3109220F331F4E
:101E7000E0911602F0911702E20FF31F118337C0B1
:101E80002F3FA1F1E1E0E20FE0931502E22EE01A0C
:101E9000F0E0CE2DD0E0CE17DF0734F080911502B0
:101EA00081508093150222C075DF8111F7CF909188
:101EB00015029150E0911602F0911702E91660F4B4
:101EC000E90FF11DE90FF11DDF0112970D90BC9193
:101ED000A02DB183A083EDCFDE01AA0FBB1FAE0FF3
:101EE000BF1FFC9211961C93802F01C08FEFDF91D2
:101EF000CF911F910F91FF90EF900895CF938ADFBC
:101F0000C82F8F3F09F1209115029FEF920F892F63
:101F10008C1B30E021503109482F50E04217530705
:101F200074F4E0911602F0911702440F551FE40F6C
:101F3000F51F42815381518340838F5FEDCF909392
:101F4000150228DF8C2F01C08FEFCF91089580916B
:101F500015020895D6D1811108C02BD1811107C077
:101F6000F2DC882331F083E0089581E0089582E077
:101F7000089580E00895CF93DF93EC0189D2811119
:101F800006C0CE0141D1882321F082E003C081E068
:101F900001C080E0DF91CF910895823031F083302D
:101FA00031F0813029F4259A0895269A0895279AC8
:101FB0000895823031F0833031F0813029F4259852
:101FC00008952698089527980895282FCB01BA01DF
:101FD000223091F02330F1F0213049F520E030E05B
:101FE0004FE753E40E944E1D0E94F91C70E070936D
:101FF000890060938800089520E030E04FE753E4C3
:102000000E944E1D0E94F91C70E070938B0060933B
:102010008A00089520E030E04FE753E40E944E1D0F
:102020000E94F91C70E070938D0060938C000895FD
:1020300081E0B3DF82E0B1DF83E0AFCF81E0B9DFE1
:1020400082E0B7DF83E0B5CFCF92DF92EF92FF92CD
:102050006B017C01AB01BC0181E0B7DFB701A601D8
:1020600082E0B3DFB701A60183E0FF90EF90DF903D
:10207000CF90ABCF6DEC7CEC8CE49DE3E5DFD8CF6B
:10208000DDDF60E070E080E09FE3DECF1F93CF9361
:10209000DF938FE39CE90197F1F700C0000013B1D3
:1020A000D3B1D074C3B1C078C9DF9FE727E288E01D
:1020B000915020408040E1F700C00000B9DF9FE769
:1020C00027E288E0915020408040E1F700C0000006
:1020D000B5DF9FE727E288E0915020408040E1F79C
:1020E00000C00000A5DF9FE727E288E09150204074
:1020F0008040E1F700C00000A1DF9FE727E288E011
:10210000915020408040E1F700C0000091DF9FE740
:1021100027E288E0915020408040E1F700C00000B5
:102120008DDF9FE727E288E0915020408040E1F773
:1021300000C0000015FD259ADD2311F082E02DDF9F
:10214000CC2329F083E0DF91CF911F9126CFDF913F
:10215000CF911F9108958FE790E09093890080932D
:1021600088002FE782E490E1215080409040E1F721
:1021700000C000008FE790E090938B0080938A006E
:102180002FE782E490E1215080409040E1F700C0C9
:1021900000008FE790E090938D0080938C002FE7F4
:1021A00082E490E1215080409040E1F700C00000BF
:1021B0000895CF9343DB80E460DBC82F811120C0FA
:1021C00080E05BDB80E859DB8FEF57DB4EDB36DBF3
:1021D00080E453DBC82F811113C08CE04EDB80E814
:1021E0004CDB8FEF4ADB41DB29DB80E446DBC82F89
:1021F000811106C084E141DB8FEF3FDB8FEF3DDBD8
:1022000034DB8C2FCF9108958F929F92BF92CF9203
:10221000DF92EF92FF920F931F93CF93DF931F9262
:10222000CDB7DEB77C01C5DFB82E882369F096E014
:10223000F70187E011928150E9F791508EE0E80EA6
:10224000F11C9111F5CF4FC000E010E0CC24C394F5
:10225000D12CF4DA80E411DB82E10FDBC601002E21
:1022600001C0880F0A94EAF7809507DBFEDAE6DA08
:1022700080E403DB83E101DBE1DA81E4FEDACE0115
:10228000019619DBF2DA8981882E912C60E070E0EA
:1022900045E050E0D701A00FB11FFD01E60FF71F89
:1022A0009401042E02C0359527950A94E2F7217017
:1022B000332781E028272170208341505109625F34
:1022C0007F4F4F3F8FEF580741F70F5F1F4F07308A
:1022D000110509F0BECFB2DA80E4CFDA82E1CDDABF
:1022E0008FEFCBDAC2DA8B2D0F90DF91CF911F9158
:1022F0000F91FF90EF90DF90CF90BF909F908F90C5
:102300000895E1E6F0E080E88083108256985E98B8
:1023100024982C9893DE89EA8093800089E080934A
:10232000810083DA3F9885E08A95F1F7000057989D
:1023300085E08A95F1F70000549885E08A95F1F7D9
:102340000000559885E08A95F1F700006E9885E0C9
:102350008A95F1F70000479A85E08A95F1F7000029
:102360005F9A85E08A95F1F700005C9A85E08A958E
:10237000F1F700005D9A85E08A95F1F70000769A02
:1023800085E08A95F1F70000879885E08A95F1F756
:102390000000869885E08A95F1F70000859885E031
:1023A0008A95F1F70000849885E08A95F1F700009E
:1023B000819885E08A95F1F70000809885E08A95FC
:1023C000F1F70000209885E08A95F1F70000219848
:1023D00085E08A95F1F70000229885E08A95F1F76B
:1023E0000000239885E08A95F1F70000529885E077
:1023F0008A95F1F70000539885E08A95F1F700007F
:102400003E9885E08A95F1F700008F9A85E08A95DD
:10241000F1F700008E9A85E08A95F1F700008D9A19
:1024200085E08A95F1F700008C9A85E08A95F1F7AE
:102430000000899A85E08A95F1F70000889A85E086
:102440008A95F1F70000289885E08A95F1F7000059
:10245000299885E08A95F1F700002A9885E08A9509
:10246000F1F700002B9885E08A95F1F700005A9863
:1024700085E08A95F1F700005B9885E08A95F1F791
:102480000000469885E08A95F1F7000080E0089505
:10249000FC01209A85E08A95F1F700008FB18095C4
:1024A000881F8827881F87838FB191E086FB882744
:1024B00080F98927858B8FB185FB882780F989274B
:1024C00083A38FB182958170892781AB8FB1869567
:1024D0008170892787AF8FB1DF01AA5BBF4F817001
:1024E000892717968C93209885E08A95F1F700004C
:1024F000219A85E08A95F1F700008FB18095881FB9
:102500008827881F80878FB186FB882780F98927D5
:10251000868B8FB185FB882780F9892784A38FB1AB
:1025200082958170892782AB8FB1DF01A05CBF4F9C
:102530008695817089278C938FB1DF01AA5BBF4F8D
:102540008170892718968C93219885E08A95F1F7F8
:102550000000229A85E08A95F1F700008FB18095FE
:10256000881F8827881F81878FB186FB882780F97D
:102570008927878B8FB185FB882780F9892785A3D9
:102580008FB182958170892783AB8FB1DF01AF5BFB
:10259000BF4F8695817089278C938FB1DF01AA5B2D
:1025A000BF4F8170892719968C93229885E08A9570
:1025B000F1F70000239A85E08A95F1F700008FB1CA
:1025C0008095881F8827881F82878FB186FB882780
:1025D00080F98927808F8FB185FB882780F989272B
:1025E00086A38FB182958170892784AB8FB1DF017B
:1025F000AE5BBF4F8695817089278C938FB1DF01C9
:10260000AA5BBF4F817089271A968C93239885E027
:102610008A95F1F70000529A85E08A95F1F700005B
:102620008FB18095881F8827881F83878FB186FB8D
:10263000882780F98927818F8FB185FB882780F9CA
:10264000892787A38FB182958170892785AB8FB148
:10265000DF01AD5BBF4F8695817089278C938FB169
:10266000DF01AA5BBF4F817089271B968C9352981C
:1026700085E08A95F1F70000539A85E08A95F1F795
:1026800000008FB18095881F8827881F84878FB1AD
:1026900086FB882780F98927828F8FB185FB882761
:1026A00080F9892780A78FB182958170892786ABB1
:1026B0008FB1DF01AC5BBF4F8695817089278C930A
:1026C0008FB1DF01AA5BBF4F817089271C968C9365
:1026D000539885E08A95F1F700003E9A85E08A9547
:1026E000F1F700008FB18095881F8827881F8587A4
:1026F0008FB186FB882780F98927838F8FB185FB6F
:10270000882780F9892781A78FB1829581708927D1
:1027100087AB8FB1DF01AB5BBF4F86958170892797
:102720008C938FB1EA5BFF4F8170892785873E9834
:1027300085E08A95F1F7000080E0089508950895F6
:1027400008950895089508950895089508950895A1
:102750000895089508950895089508950895089591
:102760000895089508950895089508950895089581
:1027700080EE96E09AC98DED90E097C962EE81E017
:10278000B0D570D669E581E0ACD56CD669E580E05E
:10279000A8D568D66AE581E0A4D564D66AE580E06C
:1027A000A0D560D660E681E09CD55CD660E680E08E
:1027B00098D558D662EE80E094D554C662EE81E09A
:1027C00090D550D669E581E08CD54CD669E580E09E
:1027D00088D548D66BE581E084D544D66BE580E0AA
:1027E00080D540D662E681E07CD53CD662E680E0CA
:1027F00078D538D662EE80E074D534C662EE81E0DA
:1028000070D530D669E581E06CD52CD669E580E0DD
:1028100068D528D66BE581E064D524D66BE580E0E9
:1028200060D520D669E581E05CD51CD669E580E0FD
:1028300058D518D662EE80E054D514C662EE81E019
:1028400050D510D669E581E04CD50CD669E580E01D
:1028500048D508D66BE581E044D504D66BE580E029
:1028600040D500D66BE581E03CD5FCD56BE580E03A
:1028700038D5F8D562EE80E034D5F4C562EE81E05B
:1028800030D5F0D569E581E02CD5ECD569E580E05F
:1028900028D5E8D56BE581E024D5E4D56BE580E06B
:1028A00020D5E0D56DE581E01CD5DCD56DE580E077
:1028B00018D5D8D562EE80E014D5D4C562EE81E09B
:1028C00010D5D0D569E581E00CD5CCD569E580E09F
:1028D00008D5C8D56BE581E004D5C4D56BE580E0AB
:1028E00000D5C0D56EE581E0FCD4BCD56EE580E0B6
:1028F000F8D4B8D562EE80E0F4D4B4C562EE81E0DD
:10290000F0D4B0D569E581E0ECD4ACD569E580E0E0
:10291000E8D4A8D56BE581E0E4D4A4D56BE580E0EC
:10292000E0D4A0D560E681E0DCD49CD560E680E010
:10293000D8D498D562EE80E0D4D494C562EE81E01C
:10294000D0D490D569E581E0CCD48CD569E580E020
:10295000C8D488D56CE581E0C4D484D56CE580E02A
:10296000C0D480D562E681E0BCD47CD562E680E04C
:10297000B8D478D562EE80E0B4D474C562EE81E05C
:10298000B0D470D569E581E0ACD46CD569E580E060
:10299000A8D468D56CE581E0A4D464D56CE580E06A
:1029A000A0D460D569E581E09CD45CD569E580E080
:1029B00098D458D562EE80E094D454C562EE81E09C
:1029C00090D450D569E581E08CD44CD569E580E0A0
:1029D00088D448D56CE581E084D444D56CE580E0AA
:1029E00080D440D56CE581E07CD43CD56CE580E0BA
:1029F00078D438D562EE80E074D434C562EE81E0DC
:102A000070D430D569E581E06CD42CD569E580E0DF
:102A100068D428D56CE581E064D424D56CE580E0E9
:102A200060D420D56FE581E05CD41CD56FE580E0F3
:102A300058D418D562EE80E054D414C562EE81E01B
:102A400050D410D569E581E04CD40CD569E580E01F
:102A500048D408D56CE581E044D404D56CE580E029
:102A600040D400D561E681E03CD4FCD461E680E04E
:102A700038D4F8D462EE80E034D4F4C462EE81E05D
:102A800030D4F0D469E581E02CD4ECD469E580E061
:102A900028D4E8D46DE581E024D4E4D46DE580E069
:102AA00020D4E0D462E681E01CD4DCD462E680E08D
:102AB00018D4D8D462EE80E014D4D4C462EE81E09D
:102AC00010D4D0D469E581E00CD4CCD469E580E0A1
:102AD00008D4C8D46DE581E004D4C4D46DE580E0A9
:102AE00000D4C0D469E581E0FCD3BCD469E580E0C2
:102AF000F8D3B8D462EE80E0F4D3B4C462EE81E0DF
:102B0000F0D3B0D469E581E0ECD3ACD469E580E0E2
:102B1000E8D3A8D46EE581E0E4D3A4D46EE580E0E8
:102B2000E0D3A0D462E681E0DCD39CD462E680E00E
:102B3000D8D398D462EE80E0D4D394C462EE81E01E
:102B4000D0D390D469E581E0CCD38CD469E580E022
:102B5000C8D388D46EE581E0C4D384D46EE580E028
:102B6000C0D380D469E581E0BCD37CD469E580E042
:102B7000B8D378D462EE80E0B4D374C462EE81E05E
:102B8000B0D370D469E581E0ACD36CD469E580E062
:102B9000A8D368D46EE581E0A4D364D46EE580E068
:102BA000A0D360D46AE581E09CD35CD46AE580E080
:102BB00098D358D462EE80E094D354C462EE81E09E
:102BC00090D350D469E581E08CD34CD469E580E0A2
:102BD00088D348D46EE581E084D344D46EE580E0A8
:102BE00080D340D46BE581E07CD33CD46BE580E0BE
:102BF00078D338D462EE80E074D334C484E00C948B
:102C0000DC0C85E00C94DC0C86E00C94DC0C87E09A
:102C10000C94DC0C88E00C94DC0C89E00C94DC0C4B
:102C20008AE00C94DC0C8BE00C94DC0C8CE00C94B3
:102C3000DC0C8DE00C94DC0C8EE00C94DC0C8FE052
:102C40000C94DC0C80E10C94DC0C81E10C94DC0C29
:102C500082E10C94DC0C83E10C94DC0C84E10C9498
:102C6000DC0C85E10C94DC0C86E10C94DC0C87E137
:102C70000C94DC0C88E10C94DC0C89E10C94DC0CE9
:102C80008AE10C94DC0C8BE10C94DC0C8CE10C9450
:102C9000DC0C8DE10C94DC0C87E20C94DC0C8EE1F6
:102CA0000C94DC0C8FE10C94DC0C80E20C94DC0CBA
:102CB00081E20C94DC0C82E20C94DC0C83E20C9438
:102CC000DC0C84E20C94DC0C85E20C94DC0C86E2D7
:102CD0000C94DC0C82E60C94DC0C89E50C94DC0C86
:102CE0008AE50C94DC0C8BE50C94DC0C8CE50C94E4
:102CF000DC0C8DE50C94DC0C8EE50C94DC0C8FE583
:102D00000C94DC0C80E60C94DC0C81E60C94DC0C5E
:102D10008AE30C94DC0C8BE30C94DC0C8CE30C94B9
:102D2000DC0C8DE30C94DC0C8EE30C94DC0C8FE358
:102D30000C94DC0C80E40C94DC0C81E40C94DC0C32
:102D400082E40C94DC0C83E40C94DC0C84E40C949E
:102D5000DC0C85E40C94DC0C88E20C94DC0C8CE23A
:102D60000C94DC0C8BE20C94DC0C81E30C94DC0CFA
:102D700086E30C94DC0C8DE20C94DC0C8EE20C945B
:102D8000DC0C85E30C94DC0C87E30C94DC0C84E312
:102D90000C94DC0C83E30C94DC0C88E30C94DC0CCA
:102DA00081EE0E94DC0C8FE20C94DC0C81EE0E9420
:102DB000DC0C80E30C94DC0C88E50C94DC0C87E5DF
:102DC0000C94DC0C86E50C94DC0C85E50C94DC0C96
:102DD00084E50C94DC0C82E50C94DC0C81E50C940D
:102DE000DC0C80E50C94DC0C8FE40C94DC0C8AE2A7
:102DF0000C94DC0C8CE40C94DC0C89E20C94DC0C60
:102E000082EE0C94DC0C80EE0C94DC0C84EE0C94C2
:102E1000DC0C83EE0C94DC0C89E30C94DC0C87E472
:102E20000C94DC0C83E50C94DC0C86E40C94DC0C38
:102E300084E60C94DC0C84E00C94E00C85E00C94AB
:102E4000E00C86E00C94E00C87E00C94E00C88E049
:102E50000C94E00C89E00C94E00C8AE00C94E00CFB
:102E60008BE00C94E00C8CE00C94E00C8DE00C9466
:102E7000E00C8EE00C94E00C8FE00C94E00C80E110
:102E80000C94E00C81E10C94E00C82E10C94E00CD9
:102E900083E10C94E00C84E10C94E00C85E10C944B
:102EA000E00C86E10C94E00C87E10C94E00C88E1E6
:102EB0000C94E00C89E10C94E00C8AE10C94E00C99
:102EC0008BE10C94E00C8CE10C94E00C8DE10C9403
:102ED000E00C87E20C94E00C8EE10C94E00C8FE1A6
:102EE0000C94E00C80E20C94E00C81E20C94E00C79
:102EF00082E20C94E00C83E20C94E00C84E20C94EB
:102F0000E00C85E20C94E00C86E20C94E00C82E686
:102F10000C94E00C89E50C94E00C8AE50C94E00C30
:102F20008BE50C94E00C8CE50C94E00C8DE50C9496
:102F3000E00C8EE50C94E00C8FE50C94E00C80E640
:102F40000C94E00C81E60C94E00C8AE30C94E00C09
:102F50008BE30C94E00C8CE30C94E00C8DE30C946C
:102F6000E00C8EE30C94E00C8FE30C94E00C80E416
:102F70000C94E00C81E40C94E00C82E40C94E00CE2
:102F800083E40C94E00C84E40C94E00C85E40C9451
:102F9000E00C88E20C94E00C8CE20C94E00C8BE2E8
:102FA0000C94E00C81E30C94E00C86E30C94E00CB0
:102FB0008DE20C94E00C8EE20C94E00C85E30C9412
:102FC000E00C87E30C94E00C84E30C94E00C83E3C6
:102FD0000C94E00C88E30C94E00C8FE20E94E00C6F
:102FE00081EE0C94E00C80E30E94E00C81EE0C94E6
:102FF000E00C88E50C94E00C87E50C94E00C86E589
:103000000C94E00C85E50C94E00C84E50C94E00C49
:1030100082E50C94E00C81E50C94E00C80E50C94C6
:10302000E00C8FE40C94E00C8AE20C94E00C8CE44D
:103030000C94E00C89E20C94E00C82EE0C94E00C11
:1030400080EE0C94E00C84EE0C94E00C83EE0C9477
:10305000E00C89E30C94E00C87E40C94E00C83E52D
:103060000C94E00C86E40C94E00C84E60C94E00CE8
:103070000C946B0E6FEF7FEF80E090E00C949D0E50
:103080006FEF7FEF80E090E00C94AC0E6FEF7FEF7E
:1030900080E090E00C94BB0E42E062E080E00C9493
:1030A000220F82E00C947E0F41E061E080E00E94FC
:1030B000220F81E00C94CD0F81E00E947E0F81E011
:1030C0000C94D90F1F93CF93DF931F92CDB7DEB728
:1030D000182F882351F090916C029F5F90936C029F
:1030E000862F69830E94DC0C698180916C0282309A
:1030F00041F4112341F00F90DF91CF911F910C9477
:10310000E40C11110AC0815080936C02862F0F903D
:10311000DF91CF911F910C94E00C0F90DF91CF9134
:103120001F91089561EE81E0CDCF61EE80E0CACFBE
:1031300065EE81E0C7CF65EE80E0C4CF833419F43B
:1031400083E00C94CD0F0895833419F483E00C943C
:10315000D90F0895CF93DF931F92CDB7DEB791E0DB
:10316000982734E5639FF00111243EE0439FE00D72
:10317000F11D1124E20FF11DEE0FFF1FE90FF11DEC
:10318000EE0FFF1FE453F64F2591349121153105C1
:1031900089F090916D029C7F9B7F90936D02898353
:1031A000F90109958981882329F00F90DF91CF914A
:1031B0000C94D2080F90DF91CF9108958F929F9237
:1031C000AF92BF92CF92DF92EF92FF920F931F9335
:1031D000CF93DF931F92CDB7DEB7F82EE62E242FC4
:1031E00081111DC050E03EE0639FF0011124DF011A
:1031F000A40FB51FA85EBD4F6C9184E5689FE00DDC
:10320000F11D1124E40FF51FEE0FFF1FEE0FFF1F3E
:10321000E253F64F85919491825B934171F4B12C06
:10322000822E912C81E08F25C82ED12CFEE0EF9EBE
:103230008001112464E5A62E04C04E2D80E02BC031
:10324000B39429830E94A70F29818B1590F18B2DB0
:1032500029830E94F30EF801A89EE00DF11D1124B0
:10326000E80DF91DEE0FFF1FEC0DFD1DEE0FFF1F0A
:10327000E453F64F459154912981425B534101F348
:10328000FF2031F0F801E80DF91DE85EFD4F808365
:103290004E2D682F8F2D0F90DF91CF911F910F91A1
:1032A000FF90EF90DF90CF90BF90AF909F908F9066
:1032B00051CF0F90DF91CF911F910F91FF90EF9021
:1032C000DF90CF90BF90AF909F908F900895D0D017
:1032D00080E00895E4D091E0811101C090E0892F51
:1032E0000895962F662309F45BC0462F50E0FA013B
:1032F000E05EF109E830F105C0F5EA5AFF4F909120
:10330000780271C3882311F0916005C09E7F03C0CD
:10331000882329F092609093780280E008959D7F41
:10332000FACF882311F09460F6CF9B7FF4CF8823E7
:1033300011F09860F0CF977FEECF882311F0906165
:10334000EACF9F7EE8CF882311F09062E4CF9F7D83
:10335000E2CF882311F09064DECF9F7BDCCF8823FF
:1033600011F09068D8CF9F77D6CFE2E7F2E020E067
:1033700030E04081882339F041110CC0F901EE584A
:10338000FD4F9083CACF491305C0F901EE58FD4F98
:103390001082C3CF2F5F3F4F31962630310549F75A
:1033A00081E008958823A9F1482F50E0FA01E05EFA
:1033B000F109E830F10508F5E25AFF4F80917802F3
:1033C00012C38170089586958170089582FB8827C5
:1033D00080F9089583FB882780F90895829581708C
:1033E000089585FB882780F9089586FB882780F952
:1033F0000895881F8827881F0895E2E7F2E09191D9
:10340000981729F092E0E837F907C9F702C081E080
:10341000089580E008958E34A1F04CF48334A9F02F
:103420008B34F1F4809170028295817008958F340D
:1034300089F08335A9F48091700282FB882780F996
:103440000895809170028170089580917002869530
:10345000817008958091700283FB882780F9089518
:1034600080E008951FC08091E80080FFFCCF0895A0
:1034700081E08093D70080EA8093D80082E189BD03
:1034800009B400FEFDCF80E98093D8001092E000DF
:10349000109279028CE08093E200789408958091F4
:1034A0007902089580917902811102C08FEF089509
:1034B0008FB7F89493E09093E9009091E4009E5CBC
:1034C00023E03091E80035FD0EC08FBF8091790276
:1034D000882361F38091E400891741F38FB7F89452
:1034E0002093E900EECF909178029093F100109232
:1034F000F100E2E7F2E091919093F10092E0E83779
:10350000F907C9F79AE39093E800109271028FBF10
:1035100080E008951F920F920FB60F9211248F939F
:103520009F93EF93FF938091E1001092E10083FF5E
:103530000FC01092E90091E09093EB001092EC0024
:1035400092E29093ED0098E09093F000109279024F
:1035500082FF33C080917902882379F1809106013E
:10356000882359F180916F028F5F80936F0283707F
:1035700021F583E08093E9008091E80085FF1DC07C
:10358000809171028F5F809371029091060189137F
:1035900014C010927102809178028093F100109211
:1035A000F100E2E7F2E081918093F10082E0E837F8
:1035B000F807C9F78AE38093E800FF91EF919F91A4
:1035C0008F910F900FBE0F901F9018951F920F9222
:1035D0000FB60F921124EF92FF920F931F932F9328
:1035E0003F934F935F936F937F938F939F93AF938B
:1035F000BF93EF93FF93CF93DF931F92CDB7DEB7C7
:103600001092E9008091E80083FF21C19091F100C0
:103610008091F1003091F1002091F100E32EF12C26
:10362000F22A0091F1002091F10010E0122B20917C
:10363000F1006091F10032EF3093E800863009F03C
:1036400046C037E08CE09FE0FC01459154914E1557
:103650005F0539F4FC0132964591549140175107AA
:1036600021F00796315081F7F2C0FC013496459164
:103670005491FC013696849130E0362B2F3F310572
:1036800019F010F02FEF30E0281708F4822F3EEFEA
:103690009091E800292F2570D9F392FDDBC0982F77
:1036A000813208F090E2FA01292F222331F064914F
:1036B0006093F10021503196F8CF490F511D891BBD
:1036C0003093E8008111E4CF903211F3C3C085300C
:1036D00049F48EEF8093E800C6DE8E2D80688093DB
:1036E000E300B8C0893041F5911146C0E0927902FB
:1036F0008EEF8093E80041E086EF9FE04093E90081
:103700009C012F5F3F4FFC0154915093EB005523D8
:1037100061F0F90124912093EC009C012D5F3F4F53
:10372000FC01329684918093ED004F5F453011F09B
:10373000C901E4CF8EE141C0883039F4903809F0F6
:1037400041C091DE8091790260C0811115C09983DA
:103750008ADE9981923851F40093E9008091EB0060
:1037600085FB882780F91092E90001C080E08093F2
:10377000F1001092F10067C0282F2D7F213011F544
:10378000923001F5EF2809F062C00F779FEF900F9C
:10379000943008F05CC09EEF9093E8000093E9003D
:1037A000833009F454C089E18093EB0081E090E01C
:1037B000002E01C0880F0A94EAF78093EA00109265
:1037C000EA0048C0012B09F042C0913A09F5813066
:1037D00089F449DE809178028093F1001092F10023
:1037E000E2E7F2E081918093F10082E0E837F807A8
:1037F000C9F729C0823021F436DE8091060105C068
:10380000833029F530DE809107018093F1001BC0E1
:103810009132E9F4893061F48091E80082FFFCCFB5
:103820008091F100809370028BEF8093E8000BC0D1
:103830008A3029F4F09206011092710204C08B3094
:1038400031F4E09207018EEF8093E80003C081E23B
:103850008093EB000F90DF91CF91FF91EF91BF919B
:10386000AF919F918F917F916F915F914F913F9118
:103870002F911F910F91FF90EF900F900FBE0F901F
:103880001F9018950E94AA0FC82F0E943A101FDDA2
:1038900021E030E0C11102C020E030E0282BC1E07F
:1038A000232B09F4C0E016DD8823E9F30E94AB1056
:1038B0000E94FE08D0E0C82B0E944010CD2B11F0D2
:1038C0000E9446100E940809855080937E02CEE037
:1038D00080910B0190910C0190937D0280937C026A
:1038E0002091090130910A0130930C0120930B01C2
:1038F00090930A01809309010E94080990917E0229
:10390000891B8530C8F30E94080980937E0280914C
:103910000B0190910C010E94BB0F10922D0380911E
:103920002D03863058F510922C0340912C036091A2
:103930002D034E30F8F4E0910B01F0910C01C69F7D
:1039400090011124240F311DE20FF31F8081809319
:103950007B02E0910901F0910A01E20FF31F9081CF
:1039600090937A0289132ADC80912C038F5F8093D5
:103970002C03DBCF6F5F60932D03D1CF73DD80917C
:10398000080180FF2DC08EE446DD882319F08EE407
:10399000D5DB02C08EE4D8DB83E43DDD882319F05B
:1039A00083E4CCDB02C083E4CFDB83E534DD882312
:1039B00019F083E5C3DB02C083E5C6DB8FE42BDDB2
:1039C000882319F08FE4BADB02C08FE4BDDB8BE4FF
:1039D00022DD882319F08BE4B1DB02C08BE4B4DB79
:1039E0000E94A60875CFEE0FFF1F0590F491E02D01
:1039F000099433D088F09F5790F0B92F9927B75189
:103A0000A0F0D1F0660F771F881F991F1AF0BA95A2
:103A1000C9F712C0B13081F03AD0B1E0089537C093
:103A2000672F782F8827B85F39F0B93FCCF3869598
:103A300077956795B395D9F73EF4909580957095F5
:103A400061957F4F8F4F9F4F089557FD9058440FBA
:103A5000551F59F05F3F71F04795880F97FB991FED
:103A600061F09F3F79F087950895121613061406AA
:103A7000551FF2CF4695F1DF08C016161706180637
:103A8000991FF1CF86957105610508940895E89412
:103A9000BB2766277727CB0197F908950BD078C00D
:103AA00069D028F06ED018F0952309F05AC05FC095
:103AB0001124EECFCADFA0F3959FD1F3950F50E00C
:103AC000551F629FF001729FBB27F00DB11D639FD0
:103AD000AA27F00DB11DAA1F649F6627B00DA11D76
:103AE000661F829F2227B00DA11D621F739FB00D1C
:103AF000A11D621F839FA00D611D221F749F33278C
:103B0000A00D611D231F849F600D211D822F762F24
:103B10006A2F11249F5750408AF0E1F088234AF021
:103B2000EE0FFF1FBB1F661F771F881F915050406D
:103B3000A9F79E3F510570F014C0AACF5F3FECF388
:103B4000983EDCF3869577956795B795F795E79559
:103B50009F5FC1F7FE2B880F911D9695879597F96A
:103B6000089597F99F6780E870E060E008959FEFFF
:103B700080EC089500240A94161617061806090604
:103B8000089500240A9412161306140605060895D3
:103B9000092E0394000C11F4882352F0BB0F40F45B
:103BA000BF2B11F460FF04C06F5F7F4F8F4F9F4F9B
:103BB0000895A0E0B0E0EEEDFDE1F2C1EC01CB0133
:103BC000209711F4C2D0B4C0FE01E60FF71F9E018A
:103BD00022503109E217F30708F4A8C0D9010D916A
:103BE0001C91119706171707B0F00530110508F45E
:103BF0009BC0A801445051094617570708F494C0C8
:103C000002501109061B170B019311936D937C93BE
:103C1000CF0133D189C05B01A01AB10A4E01800ED9
:103C2000911EA0913003B0913103612C712C60E0A2
:103C300070E0109709F449C0A815B905C9F5ED90D1
:103C4000FC901197670142E0C40ED11CCA14DB043A
:103C500078F147018A189B08640142E0C40ED11C28
:103C60001296BC9012971396AC91B5E0CB16D10486
:103C700040F0B282A38391828082D9018D939C937C
:103C800009C00E5F1F4F0E0D1F1DF9011183008328
:103C9000EB2DFA2F6115710531F0DB011396FC93C2
:103CA000EE93129741C0F0933103E09330033CC090
:103CB0006D917C9111976616770608F43B01BD0162
:103CC00012960D90BC91A02DB4CF60912E037091EF
:103CD0002F0368157905E9F468167906D0F4409148
:103CE0000001509101014115510541F44DB75EB7F6
:103CF0006091040170910501461B570BE417F5070D
:103D0000A8F4F0932F03E0932E03F90191838083AD
:103D10000BC01BD07C01009749F0A801BE010CD05C
:103D2000CE01ABD0C70104C0CE0102C080E090E05C
:103D3000CDB7DEB7EEE050C1FB01DC0102C001905F
:103D40000D9241505040D8F70895CF93DF938230C1
:103D5000910510F482E090E0E0913003F09131039E
:103D600020E030E0A0E0B0E0309739F140815181AF
:103D700048175907B8F04817590771F482819381A1
:103D8000109729F013969C938E9312972CC09093C2
:103D900031038093300327C02115310531F04217DC
:103DA000530718F0A901DB0101C0EF019A01BD0121
:103DB000DF010280F381E02DD7CF21153105F9F025
:103DC000281B390B2430310580F48A819B816115D1
:103DD000710521F0FB019383828304C0909331032A
:103DE00080933003FE01329644C0FE01E20FF31FC0
:103DF0008193919322503109398328833AC02091CD
:103E00002E0330912F03232B41F420910201309196
:103E1000030130932F0320932E0320910001309152
:103E200001012115310541F42DB73EB74091040140
:103E300050910501241B350BE0912E03F0912F03C7
:103E4000E217F307A0F42E1B3F0B2817390778F071
:103E5000AC014E5F5F4F2417350748F04E0F5F1FD0
:103E600050932F0340932E038193919302C0E0E07F
:103E7000F0E0CF01DF91CF910895CF93DF930097CA
:103E800009F487C0FC01329713821282C09130037B
:103E9000D0913103209781F420813181280F391F7F
:103EA00080912E0390912F038217930779F5F09359
:103EB0002F03E0932E036DC0DE0120E030E0AE174B
:103EC000BF0750F412964D915C9113979D014115D7
:103ED000510509F1DA01F3CFB383A2834081518107
:103EE000840F951F8A179B0771F48D919C911197F0
:103EF000840F951F02969183808312968D919C91D9
:103F00001397938382832115310529F4F0933103AC
:103F1000E09330033EC0D9011396FC93EE931297C1
:103F20004D915D91A40FB51FEA17FB0779F48081CD
:103F30009181840F951F0296D90111969C938E93BF
:103F40008281938113969C938E931297E0E0F0E028
:103F50008A819B81009719F0FE01EC01F9CFCE0117
:103F6000029628813981820F931F20912E03309170
:103F70002F032817390769F4309729F41092310379
:103F80001092300302C013821282D0932F03C09389
:103F90002E03DF91CF9108952F923F924F925F921F
:103FA0006F927F928F929F92AF92BF92CF92DF9249
:103FB000EF92FF920F931F93CF93DF93CDB7DEB7AE
:103FC000CA1BDB0B0FB6F894DEBF0FBECDBF099442
:103FD0002A88398848885F846E847D848C849B8499
:103FE000AA84B984C884DF80EE80FD800C811B81A7
:103FF000AA81B981CE0FD11D0FB6F894DEBF0FBED6
:0A400000CDBFED010895F894FFCF45
:10400A000000320320007D01017F02D3022A2B28FF
:10401A00000028000000000000000000000000006E
:10402A0029000000002C1E342021222434262725B2
:10403A002E362D3738000000000000000000003343
:10404A0033362E3738000000000000000000000060
:10405A0000001F0000000000000000000000000037
:10406A002F3130232D350000000000000000000031
:10407A000000000000000000000000000000000036
:10408A002F3130354C000000000000000000000015
:10409A000000000000000000000000000000010114
:1040AA0001010101000101010100000000000000FE
:1040BA0000000000000000010001000101000000F2
:1040CA0000000000000000000000010000000000E5
:1040DA0000000000000000000000000101000000D4
:1040EA0000000000000000000000000000000000C6
:0E40FA000000000000000000010101010000B4
:00000001FF
